:0606E400C2A58F80D2A721
:0806EA007F027EEFDEFEDFFC63
:0106F20022E5
:0A06FF00C2A61206E4C2A70206EA32
:10063800CFCDCFCECCCE1201387C007D0A12013846
:04064800ED2430FF6E
:0A064C00D2A61206E4C2A70206EAD5
:1006BA00AE07BE0104ED148006BE0209ED243F44D4
:0606CA0080FF1206FF2272
:1006D0007F381206FF7F0C1206FF7F061206FF7F8F
:0406E000010206FF0E
:0A070900AC031206BAAF0402064C5E
:0605F4008B2E8A2F8930D6
:1005FA001206BAE4FDAB2EAA2FA9308D82758300AC
:0C060A001200F9FF600612064C0D80E99A
:0106160022C1
:0C0570007F0AEA24FFFDE434FFFC7E005B
:08057C008E2A8F2B8C2C8D2D93
:100584007F017E00E4FBEBC3952DE52C6480F874B9
:0E0594008098500AAC2AAD2B1201260B80E88D
:0105A2002236
:040656008A1D8B1E50
:10065A001206BAAA1FEAD39400400D120570AC1D07
:08066A00AD1E1206381A80EDE6
:010672002265
:1004C5001206BAC3EA64809480400B7F2B12064C57
:1004D5008A198B1A800E7F2D12064CC3E49BF51AE0
:1004E500E49AF519AA18EAD39400400D120570ACE8
:0904F50019AD1A1206381A80ED47
:0104FE0022DB
:0404FF008A228B239F
:100503001206BAAA24EAD3940040297F1012057276
:10051300AC22AD23CFCDCFCECCCE120138EF540FCA
:10052300FEC3940AEE5004243080022437FF1206DF
:040533004C1A80D10D
:0105370022A1
:040538008A278B285B
:10053C001206BAAA29EAD394004028EA24FFFDE463
:10054C0034FFFC7F027E0012057CAC27AD28CFCD9A
:10055C00CFCECCCE120138EF54012430FF12064C12
:03056C001A80D220
:01056F002269
:0A0713003F065B4F666D7D077F6FA8
:040673007F147E0072
:10067700EF4E6010007D027CC7DCFEDDFCEF1F70D3
:04068700EF1E80ECF6
:01068B00224C
:0403FF008F088D09CD
:10040300780A7C007D007BFF7A0779137E007F0AE0
:100413001200D3E50814B40800505490042C75F06E
:1004230003A4C58325F0C583730204440204480270
:10043300044C02045002045402045C0204640204E7
:100443006CD2A4800ED2A48012D2A48016D2A4802F
:100453001AC2A4D2A3D2A28016C2A4D2A3C2A280DB
:100463000EC2A4C2A3D2A28006C2A4C2A3C2A27413
:100473000A2509F8E6F5807F017E00120677E4F588
:0104830080F8
:010484002255
:10048500E4FB20B10E7F14FE12067730B1FD120693
:10049500737B0120B00B12067330B0FD1206737B1F
:1004A5000220B20B12067330B2FD1206737B0320D5
:0F04B500B30B12067330B3FD1206737B04AF0353
:0104C4002215
:10068C005389F0438901758A66758CFCC28DD28CB6
:07069C00D2A9D2AFC2B922BE
:1006A30053877F75984053890F438920758BFA755B
:0706B3008DFAC2ABD28E22CA
:08071D008F993099FDC2992269
:0205A300AD07A2
:1005A500E4FB74807E00A803088006CEA2E713CE84
:1005B50013D8F8FFEDF582EF558224FF92B4D2B639
:0A05C500C2B60BBB08DCD2B5C2B50C
:0105CF002209
:1005D000AE05AC07AF061205A3AF047480A80708E8
:1005E0008002C313D8FCF4F5807F017E00120677E9
:0405F0007580FF22F1
:100617000000000000000000FF0101010100FF9140
:1006270091690600FF0101010100000000000000C0
:0106370000C2
:10031600E4F53175320AC3E531648094994003E40B
:10032600F531AF31EF3395E0FE74172FF582740681
:100336003EF583E493FDE4FF1205D0AF31EF33952C
:10034600E0FE74182FF58274063EF583E493FD7F74
:10035600011205D0AF31EF3395E0FE74192FF58207
:1003660074063EF583E493FD7F021205D0AF31EFAC
:100376003395E0FE741A2FF58274063EF583E493F6
:10038600FD7F031205D0AF31EF3395E0FE741B2FCE
:10039600F58274063EF583E493FD7F041205D0AF23
:1003A60031EF3395E0FE741C2FF58274063EF5831B
:1003B600E493FD7F051205D0AF31EF3395E0FE746F
:1003C6001D2FF58274063EF583E493FD7F06120524
:1003D600D0AF31EF3395E0FE741E2FF58274063EE2
:1003E600F583E493FD7F071205D0E532B40A05E4F0
:0903F600F5320531053202031C49
:10018D00E4F5337590FFC2932097137F14FE12068A
:10019D00773097FD7F147E00120677753301209618
:1001AD00147F147E001206773096FD7F147E0012A8
:1001BD0006777533052095147F147E00120677306F
:1001CD0095FD7F147E001206777533092094147FF8
:1001DD00147E001206773094FD7F147E0012067790
:1001ED0075330D7590FFC2922097147F147E001207
:1001FD0006773097FD7F147E001206777533022047
:10020D0096147F147E001206773096FD7F147E00C3
:10021D001206777533062095147F147E001206772B
:10022D003095FD7F147E0012067775330A209414E5
:10023D007F147E001206773094FD7F147E00120627
:10024D007775330E7590FFC2912097147F147E0041
:10025D001206773097FD7F147E00120677753303F3
:10026D002096147F147E001206773096FD7F147E43
:10027D00001206777533072095147F147E00120641
:10028D00773095FD7F147E0012067775330B209421
:10029D00147F147E001206773094FD7F147E0012B9
:1002AD00067775330F7590FFC2902097147F147EDB
:1002BD00001206773097FD7F147E00120677753396
:1002CD00042096147F147E001206773096FD7F145D
:1002DD007E001206777533082095147F147E001268
:1002ED0006773095FD7F147E0012067775330C204E
:1002FD0094147F147E001206773094FD7F147E00D7
:08030D00120677753310AF33BF
:0103150022C5
:030000000206F302
:0C06F300787FE4F6D8FD75813302031611
:10000300E709F608DFFA8046E709F208DFFA803EDF
:1000130088828C83E709F0A3DFFA8032E309F608CC
:10002300DFFA8078E309F208DFFA807088828C8334
:10003300E309F0A3DFFA806489828A83E0A3F608E8
:10004300DFFA805889828A83E0A3F208DFFA804CC2
:1000530080D280FA80C680D4806980F28033801099
:1000630080A680EA809A80A880DA80E280CA803302
:1000730089828A83ECFAE493A3C8C582C8CCC5837A
:10008300CCF0A3C8C582C8CCC583CCDFE9DEE7804A
:100093000D89828A83E493A3F608DFF9ECFAA9F0C9
:1000A300EDFB2289828A83ECFAE0A3C8C582C8CC1F
:1000B300C583CCF0A3C8C582C8CCC583CCDFEADE38
:1000C300E880DB89828A83E493A3F208DFF980CC9A
:1000D30088F0EF60010E4E60C388F0ED2402B40493
:1000E3000050B9F582EB2402B4040050AF2323453A
:0600F3008223900053730C
:1000F900BB010CE58229F582E5833AF583E02250BC
:1001090006E92582F8E622BBFE06E92582F8E22205
:0D011900E58229F582E5833AF583E493221F
:10012600EF8DF0A4A8F0CF8CF0A428CE8DF0A42EED
:02013600FE22A7
:10013800BC000BBE0029EF8DF084FFADF022E4CCAB
:10014800F875F008EF2FFFEE33FEEC33FCEE9DEC74
:10015800984005FCEE9DFE0FD5F0E9E4CEFD22EDBA
:10016800F8F5F0EE8420D21CFEADF075F008EF2F04
:10017800FFED33FD4007985006D5F0F222C398FDF5
:050188000FD5F0EA2292
:00000001FF
